:1000000012C057C09BC0189518951895189518954B
:100010001895189518951895189518951895189578
:10002000189518951895EFEDEDBF00241124109444
:10003000BFEDE12DEBBBE8BBEB2FE2BBE095E1BBF5
:10004000E0E3E5BFE0E8E8B9E0ECEBBF7894889541
:10005000B2BBFCCFD395A095EA2FEB2BE2BB0000FF
:100060000000000000000000000000000000B2BB23
:100070000000000000000000000000000000000080
:1000800000000000000000000000CA9539F7DA9572
:1000900029F70895C4E1D0E0DDCFC6E1D0E0DACFA2
:1000A000CEE3D0E0D7CFC9EAD0E0D4CFC4E5D1E0E9
:1000B000D1CFAA27FBDFF7DFF0DFECDFEEDFF0DFE9
:1000C000ECDFE8DFEADFECDFE8DFEADFE6DFE2DFF4
:1000D000E4DFE0DFE2DFE4DFE0DFE2DFDEDFDADF24
:1000E000DCDFDEDFDADFD6DFD8DFD4DFD6DFD2DF5A
:1000F000D4DFD6DFD2DFCEDFD0DFCCDFCEDFCADF8A
:10010000CCDFCEDFCADFC6DFC8DFC4DFC6DFC2DFB9
:10011000C4DFC0DFC2DFBEDFC0DFC2DFBEDFC0DFE3
:10012000BCDFB8DFBADFBCDFB8DFBADFB6DFB8DF0D
:10013000B4DFB6DFB2DFB4DFB0DF0895AA27B6DFE1
:10014000B2DFABDFA7DFA9DFABDFA7DFA3DFA5DF70
:10015000A7DFA3DFA5DFA1DF9DDF9FDF9BDF9DDFA3
:100160009FDF9BDF9DDF99DF95DF97DF99DF95DFCD
:1001700091DF93DF8FDF91DF8DDF8FDF91DF8DDF09
:1001800089DF8BDF87DF89DF85DF87DF83DF85DF3F
:1001900087DF83DF7FDF81DF7DDF7FDF7BDF7DDF69
:1001A0007FDF7BDF7DDF79DF7BDF77DF79DF75DF87
:1001B00071DF73DF75DF71DF73DF6FDF71DF6DDFBD
:0601C00069DF6BDF08950A
:00000001FF
