:1000000012C05DC0A5C0189518951895189518953B
:100010001895189518951895189518951895189578
:10002000189518951895EFEDEDBF00241124109444
:10003000BFEDE12DEBBBE8BBEB2FE2BBE095E1BBF5
:10004000E0E3E5BFE0E8E8B9E0ECEBBF7894889541
:10005000B2BBFCCFD395A095EA2FEB2BE2BB0000FF
:100060000000000000000000000000000000B2BB23
:100070000000000000000000000000000000000080
:1000800000000000000000000000CA9539F7DA9572
:1000900029F70895C5E1D0E0DDCFC7E1D0E0DACFA0
:1000A000CEE3D0E0D7CFC2E5D0E0D4CFC9EAD0E0EC
:1000B000D1CFC5E5D1E0CECFCBEFD6E0CBCFAA27CD
:1000C000F8DFF4DFE7DFECDFE5DFE4DFE3DFE8DFE5
:1000D000E1DFE0DFDFDFE4DFDDDFE2DFDBDFE0DF2A
:1000E000D9DFD8DFD7DFD6DFD5DFDADFD3DFD2DF66
:1000F000D1DFD0DFCFDFD4DFCDDFCCDFCBDFCADF96
:10010000C9DFC8DFC7DFCCDFC5DFCADFC3DFC8DFB9
:10011000C1DFC0DFBFDFBEDFBDDFBCDFBBDFBADFFB
:10012000B9DFB8DFB7DFB6DFB5DFBADFB3DFB2DF25
:10013000B1DFB0DFAFDFAEDFADDFACDFABDFAADF5B
:10014000A9DFA8DFAADFB8DFB4DFADDFA6DF08953F
:10015000AA27AFDFABDF9EDFA3DF9CDF9BDF9ADF49
:100160009FDF98DF97DF96DF9BDF94DF99DF92DFD9
:1001700097DF90DF8FDF8EDF8DDF8CDF91DF8ADF0F
:1001800089DF88DF87DF86DF8BDF84DF83DF82DF45
:1001900081DF80DF7FDF7EDF83DF7CDF81DF7ADF6F
:1001A00079DF78DF77DF76DF75DF74DF73DF72DFAB
:1001B00071DF70DF6FDF6EDF6DDF6CDF71DF6ADFD5
:1001C00069DF68DF67DF66DF65DF64DF63DF62DF0B
:1001D00061DF60DF5FDF61DF6FDF6BDF64DF5DDF0B
:0201E000089580
:00000001FF
