:020000020000FC
:1000000012C029C043C018951895189518951895D1
:100010001895189518951895189518951895189578
:10002000189518951895EFEDEDBF0CE013E7EFEF7D
:10003000EBBBE8BBE3E7E1BBECE0E2BBE0E3E5BF41
:10004000E0E8E8B9E0ECEBBF78948895F894E0B389
:10005000EC30E9F7F9CF35D03DD03CD037D036D0B1
:1000600039D038D033D036D031D030D02FD032D074
:1000700031D02CD02BD02AD029D028D027D026D0B0
:1000800029D024D023D022D020D018951AD022D025
:1000900021D01CD01BD01ED01DD018D01BD016D004
:1000A00015D014D017D012D015D010D00FD00ED03C
:1000B0000DD00CD00BD00AD00DD008D007D005D071
:1000C00018950CD0E8E542D0089504C023D0E8E5A7
:1000D0003DD008951FD0EDEC39D00895E5E112BB75
:1000E0000000000000000000000000000000000010
:1000F00002BB000000000000000000000000000043
:100100000000000000000000000000000000EA9570
:1001100031F70895EBE012BB000000000000000082
:10012000000000000000000002BB00000000000012
:1001300000000000000000000000000000000000BF
:10014000000000000000EA9531F70895000000006B
:1001500000000000000000000000EA95B9F70895D3
:00000001FF
